:020000040800F2
:10000000D018002001010008390800088F040008FA
:1000100035080008A701000853110008000000007F
:10002000000000000000000000000000710B00084C
:10003000AB010008000000003B0A0008210D000889
:100040001B0100081B0100081B0100081B01000820
:100050001B0100081B0100083D0200081B010008ED
:100060001B0100081B0100081B0100081B01000800
:100070001B0100081B0100081B0100081B010008F0
:100080001B0100081B0100081B0100081B010008E0
:100090001B0100081B0100081B0100081B010008D0
:1000A0001B0100081B0100081B0100081B010008C0
:1000B0001B0100081B010008000000001B010008D4
:1000C0001B01000800000000000000001B010008E8
:1000D00000000000C91000081B010008000000001B
:1000E0001B0100081B0100081B010008DFF80CD0F1
:1000F00000F018F80048004791110008D0180020BF
:100100000648804706480047FEE7FEE7FEE7FEE7B1
:10011000FEE7FEE7FEE7FEE7FEE7FEE7250D000847
:10012000ED000008064C074D06E0E06840F00103D2
:1001300094E8070098471034AC42F6D3FFF7DAFF93
:10014000D8180008F818000870B58D1810F8014B81
:1001500014F0030201D110F8012B231106D110F87D
:10016000013B03E010F8016B01F8016B521EF9D15D
:10017000ABB110F8012B04F00C048A1A0C2C03D03C
:10018000A2EB84129B1C08E010F8014BA2EB0422A6
:10019000F8E712F8014B01F8014B5B1EF9D5A942B3
:1001A000D4D3002070BD00BFFEE7704710B56FF0DC
:1001B000040000F053FD0A4800680A49B0FBF1F062
:1001C000094908700846007800EB4001C1EBC010F7
:1001D0004FF6FF7101EAC0000449088010BD00001D
:1001E0000000002000127A00CA140020CC14002065
:1001F0000146114A12884A434FF0E0235A61002217
:100200009A611A46126942F001021A6100BF4FF06A
:10021000E022106900F001021AB100F48032002AD5
:10022000F5D04FF0E022126922F001024FF0E023F6
:100230001A6100229A617047CC14002010B5012089
:1002400000F018F850B10020054908704FF4005133
:10025000044800F01AF9012000F006F810BD000073
:10026000280000200010014001490860704700008C
:1002700014040140014600200022074B1B6803EADA
:100280000102054B14331B680B4013B10AB1012066
:1002900000E00020704700000004014000212349D5
:1002A0008279002A3AD00A46126803689A430B46BC
:1002B0001A600A1D126803689A430B1D1A600279BE
:1002C00011440A6803681A430A60184A083212681F
:1002D00003689A43154B08331A601A1D12680368A5
:1002E0009A43124B0C331A604279102A0ED11A1F0E
:1002F000126803681A430D4B08331A601A1D1268FE
:1003000003681A43094B0C331A600DE00749427920
:1003100011440A6803681A430A6005E0027911442F
:100320000A6803689A430A607047000000040140AD
:1003300030B500228B071C0F0F2303FA04F20B4B7E
:100340008C1053F824309343084C8D1044F825301A
:1003500023468C1053F824308C07240F00FA04F441
:100360002343024C8D1044F8253030BD0800014075
:100370002DE9F0410246002500260020002300243C
:10038000002791F803C00CF00F0591F803C00CF0A2
:10039000100CBCF1000F03D091F802C04CEA050527
:1003A00091F800C0BCF1000F31D0146800202BE0A0
:1003B0004FF0010C0CFA00F3B1F800C00CEA030690
:1003C0009E4220D183004FF00F0C0CFA03F7BC4380
:1003D00005FA03FC4CEA040491F803C0BCF1280FB1
:1003E00006D14FF0010C0CFA00FCC2F814C00AE070
:1003F00091F803C0BCF1480F05D14FF0010C0CFA85
:1004000000FCC2F810C0401C0828D1D31460B1F819
:1004100000C0BCF1FF0F34DD546800202EE000F175
:10042000080C4FF0010808FA0CF3B1F800C00CEA10
:1004300003069E4221D183004FF00F0C0CFA03F704
:10044000BC4305FA03FC4CEA040491F803C0BCF178
:10045000280F05D100F1080C08FA0CF8C2F8148036
:1004600091F803C0BCF1480F07D100F1080C4FF020
:10047000010808FA0CF8C2F81080401C0828CED3F6
:100480005460BDE8F081416170470161704700BF71
:10049000FEE770B502460024002500230020958A5F
:1004A000138B1B0445EA030626F07F4404EA010689
:1004B0008E4201D1012000E0002070BD21B10288F0
:1004C00042F00102028004E002884FF6FE731A40F7
:1004D0000280704700B585B00121480500F0AEFAF2
:1004E0000121082000F0CAFAC020ADF80000032066
:1004F0008DF802001C208DF8030069461148FFF7B3
:1005000037FF114800F024F80020ADF808004BF642
:10051000FF70ADF80A003020ADF80C004FF4806099
:10052000ADF80E000001ADF810000848019001215F
:100530000548FFF7C3FF01A9034800F05BF805B0C9
:1005400000BD0000000C014000540040801A06006D
:1005500010B504460B48844209D10121480500F03A
:100560007DFA00214FF4001000F078FA08E0012134
:10057000880500F073FA00214FF4800000F06EFA55
:1005800010BD00000054004021B1028842F4807286
:10059000028004E002884FF6FF631A400280704731
:1005A00021B1028842F40072028004E002884FF612
:1005B000FF531A40028070470CB50246002000230A
:1005C0000193009300920B0F019321F07F41019B57
:1005D0001BB1009B1433009303E0090C009B1833FC
:1005E0000093009B1B680B400BB1012000E0002032
:1005F0000CBD00002DE9F04385B004460D460026F1
:10060000B1460427DFF8CC80A6884FF6C0700640BC
:10061000684600F043FADDF808802F48B8FBF0F098
:100620001FFA80F946EA0906A68020884FF6FE7177
:100630000840208000262949286888420CD828686C
:100640004000B8FBF0F087B2042F00DA04273E43E5
:1006500009F10100208427E0E8884BF6FF71884209
:1006600006D1286800EB4000B8FBF0F087B209E043
:10067000286800EBC00101EB0010B8FBF0F087B276
:1006800047F48047C7F30B0008B947F0010747F468
:10069000004006434FF4967009FB00F04FF47A7166
:1006A00090FBF1F0401C2084A683208840F00100DC
:1006B000208026884FF6F5300640A88869890843CF
:1006C00006432680A88929890843208105B0BDE812
:1006D000F083000000127A0040420F00A086010063
:1006E00012B141F0010102E04FF6FE7319400182A0
:1006F000704701827047000070B504460D4600BF88
:100700004FF400311C48FFF757FF0028F8D10121B2
:100710001948FFF739FF00BF18491748FFF7B9FE1E
:100720000028F9D0002278211348FFF7D9FF00BF35
:1007300013491148FFF7ADFE0028F9D021460E48B5
:10074000FFF7D7FF00BF0E49891C0B48FFF7A1FE3A
:100750000028F8D029460848FFF7CBFF00BF08491A
:10076000891C0548FFF795FE0028F8D001210248B2
:10077000FFF716FF70BD00000054004001000300A9
:100780008200070010B500F02BF800F017F800F019
:1007900001F810BD1CB500210846FFF7C9FD012076
:1007A000009000208DF8040008208DF8050001203D
:1007B0008DF806006846FFF771FD1CBD08B50121E4
:1007C000052000F05BF904208DF803000120ADF84E
:1007D000000069460148FFF7CBFD08BD0008014055
:1007E00008B54FF4C06000F061F806208DF80000F5
:1007F00001208DF801008DF802008DF80300684695
:1008000000F01CF808BD000008B50121102000F020
:1008100035F94FF40050ADF8000003208DF80200C8
:1008200010208DF8030069460148FFF7A1FD08BDBF
:100830000010014000BFFEE77047000070B50021C6
:1008400000230F22C47804B3154C246804F4E06438
:10085000C4F5E064210AC1F10403CA40447804FAF3
:1008600003F184781440214309010E4C0678A15508
:10087000047804F01F050124AC4005786D11AD002B
:1008800005F1E025C5F8004109E0047804F01F05F2
:100890000124AC40044D0678761145F8264070BD21
:1008A0000CED00E000E400E080E100E002490143DB
:1008B000024A1160704700000000FA050CED00E0EC
:1008C0002DE9F05F06460F4690461C46DDF828A04D
:1008D0004FF0000BE11704EB5171C910A4EBC101FB
:1008E00031B92046E11704EB5171C1F3C70506E0A9
:1008F0002046E11704EB5171C910491CCDB23D46A9
:1009000014E02946304600F084F8B1460AE0594622
:100910000BF1010B1AF8010000F024FC09F10100B1
:1009200000F0FF09C145F2DB681CC5B2A542E8DB57
:10093000BDE8F09F10B56420FFF75AFCAE2000F030
:100940000AFC202000F007FC102000F004FCB0207E
:1009500000F001FCC82000F0FEFB002000F0FBFBD3
:10096000102000F0F8FB402000F0F5FB812000F0A3
:10097000F2FBFF2000F0EFFBA12000F0ECFBA62033
:1009800000F0E9FBA82000F0E6FB3F2000F0E3FBCD
:10099000A42000F0E0FBD32000F0DDFB002000F0FD
:1009A000DAFBD52000F0D7FBF02000F0D4FBD920F3
:1009B00000F0D1FB222000F0CEFBDA2000F0CBFBD0
:1009C000122000F0C8FBDB2000F0C5FB202000F067
:1009D000C2FB8D2000F0BFFB142000F0BCFBAF2059
:1009E00000F0B9FB10BD10B58D2000F0B4FB102055
:1009F00000F0B1FBAE2000F0AEFB10BD10B58D20B5
:100A000000F0A9FB142000F0A6FBAF2000F0A3FB30
:100A100010BD70B504460D4605F1B001C8B200F036
:100A20009AFB102141EA141000F095FB04F00F012D
:100A300041F0010000F08FFB70BD704729B1064AFC
:100A4000D2690243044BDA6104E0034AD26982436B
:100A5000014BDA61704700000010024029B1064ADC
:100A600012690243044B1A6104E0034A126982438B
:100A7000014B1A61704700000010024029B1064A7C
:100A800092690243044B9A6104E0034A92698243EB
:100A9000014B9A61704700000010024030B5002100
:100AA0000022002400232D4D6D6805F00C0121B1BA
:100AB000042905D0082923D105E0294D056022E04D
:100AC000274D05601FE0254D6D6805F47012234D1C
:100AD0006D6805F48034022505EB92421CB9214D66
:100AE000554305600BE01D4D6D6805F400351DB1E3
:100AF0001C4D5543056002E0194D5543056002E069
:100B0000174D056000BF00BF144D6D6805F0F00182
:100B10000909154D6B5C0568DD4045600F4D6D683A
:100B200005F4E061090A104D6B5C4568DD408560A5
:100B30000A4D6D6805F46051C90A0B4D6B5C456840
:100B4000DD40C560054D6D6805F44041890B074DDA
:100B50006B5CC568B5FBF3F5056130BD0010024064
:100B600000127A0000093D0014000020240000203B
:100B7000704710B500F002F810BD00000CB5002061
:100B8000019000903348006840F48030314908609B
:100B900000BF3048006800F4003000900198401C0D
:100BA0000190009818B90198B0F5A06FF1D12948CB
:100BB000006800F4003010B10120009001E0002036
:100BC00000900098012843D12348006840F01000AD
:100BD000214908600846006820F0030008600846C4
:100BE000006840F0020008601A48406819494860EF
:100BF0000846406848600846406840F480604860A5
:100C00000846406820F47C1048600846406840F47C
:100C1000E81048600846006840F08070086000BF37
:100C20000C48006800F000700028F9D009484068BE
:100C300020F00300074948600846406840F0020081
:100C4000486000BF0348406800F00C000828F9D154
:100C50000CBD00000010024000200240042808D112
:100C60004FF0E021096941F004014FF0E0221161E9
:100C700007E04FF0E021096921F004014FF0E02284
:100C80001161704730B50146B1F1807F01D3012079
:100C900030BD21F07F40401E4FF0E02250615017E0
:100CA0000F22002807DA13071D0E094B00F00F046E
:100CB000241F1D5503E013071C0E064B1C5400BFD8
:100CC00000204FF0E0229061072010610020DFE754
:100CD00018ED00E000E400E031B5104800684FF482
:100CE0007A71B0FBF1F52846FFF7CCFF002408E04D
:100CF00000BF4FF0E020006900F480300028F8D0F9
:100D0000641C00988442F3D34FF0E020006920F087
:100D100001004FF0E021086138BD00000000002014
:100D20007047000010B51348006840F001001149F9
:100D3000086008464068104908400E494860084667
:100D400000680E4908400B4908600846006820F416
:100D5000802008600846406820F4FE0048604FF498
:100D60001F008860FFF705FF4FF00060044908602E
:100D700010BD0000001002400000FFF8FFFFF6FE6B
:100D800008ED00E030B589B005460C460121C802E7
:100D9000FFF774FE01210420FFF770FE4FF480700E
:100DA000ADF8200018208DF8230003208DF82200D4
:100DB00008A92948FFF7DCFA4FF40070ADF82000CD
:100DC00018208DF8230003208DF8220008A922485E
:100DD000FFF7CEFAADF81850ADF814400020ADF88A
:100DE0001A00ADF8160005A91C4800F01BF9702088
:100DF000ADF804000120ADF806000020ADF80A00AF
:100E0000ADF80C0001A9154800F052F87020ADF8BB
:100E100004000120ADF806000020ADF80A00ADF88E
:100E20000C0001A90D4800F099F801210B4800F0D1
:100E30002FF80821094800F087F80821074800F03A
:100E4000DFF80121054800F00BF80121034800F00C
:100E500013F809B030BD000000080140002C01402B
:100E600021B1028842F08002028004E002884FF63D
:100E70007F731A400280704721B1028842F001025C
:100E8000028004E002884FF6FE731A400280704729
:100E900031B1B0F8442042F40042A0F8442005E00B
:100EA000B0F84420C2F30E02A0F8442070470000BE
:100EB00070B5002400220023058C4FF6FE763540E5
:100EC0000584028C8388048B4FF68F752C40B51EE9
:100ED0002C400D882C43751E2A400D892A434D88CD
:100EE0002A43144DA8420BD0134DA84208D0134DED
:100EF000A84205D0124DA84202D0124DA84213D1EB
:100F00004FF6F7752A404D892A434FF6FB752A4064
:100F10008D882A434FF6FF652B404FF6FF552B4037
:100F20008D892B43CD892B4383800483CD8885868F
:100F3000028470BD002C014000340140004001409B
:100F400000440140004801400A460021018B4FF651
:100F5000F7731940114301837047000070B50024F6
:100F600000220023058C4FF6EF7635400584028C75
:100F70008388048B48F6FF752C404FF6FF452C40C4
:100F80000D884FF6FF7606EA05252C434FF6DF75F0
:100F90002A400D8906EA05152A434D8806EA0515FB
:100FA0002A43154DA84202D0144DA8421DD14FF638
:100FB0007F752A404D894FF6FF7606EA05152A43CC
:100FC0004FF6BF752A408D8806EA05152A434FF66D
:100FD000FF352B404FF2FF752B408D8906EA8505C2
:100FE0002B43CD8906EA85052B4383800483CD8876
:100FF0000587028470BD0000002C014000340140D0
:101000000A460021018B4FF2FF7319404FF6FF7320
:1010100003EA0223194301837047818670470187E1
:1010200070470000002202881D4B98420ED01D4BD5
:1010300098420BD0B0F1804F08D01B4B984205D09E
:101040001A4B984202D01A4B984204D14FF68F7334
:101050001A404B881A43174B984207D0164B9842B8
:1010600004D04FF6FF431A40CB881A4302808B8886
:1010700083850B8803850A4B98420BD0094B984215
:1010800008D00E4B984205D00D4B984202D00D4B24
:10109000984201D10B7A03860123838270470000B6
:1010A000002C0140003401400004004000080040D2
:1010B000000C0040001000400014004000400140BF
:1010C000004401400048014010B540F22551064857
:1010D00000F00CF838B1044800F032F8C4B22146F0
:1010E000014800F032F810BD0038014070B50246EA
:1010F000002400230025002040F66A16B14200D1EA
:1011000000BFC1F3421501F01F03012606FA03F3E5
:10111000012D02D19689334006E0022D02D1168AB4
:10112000334001E0968A33400C12012606FA04F49B
:101130001688344013B10CB1012000E0002070BDCE
:1011400001468888C0F308007047C1F30802828016
:10115000704700BFFEE710B5044621460020FFF7A8
:10116000CBFA10BD10B5044621464020FFF7C4FA63
:1011700010BD02E008C8121F08C1002AFAD170474A
:101180007047002001E001C1121F002AFBD1704707
:101190000024FFF70BF8FFF79DF9FFF7CBFBFFF7F4
:1011A00033FB41F61F41C720FFF7ECFDFFF7EAFADA
:1011B0004FF400511E48FFF766F937E0FFF713FCC4
:1011C0004FF400511A48FFF75EF9012019490870E1
:1011D00040F2DC50FFF780FD1648007830BBFFF787
:1011E0000DFC072C17D2DFE804F01604070A0D10D7
:1011F000130000F021F80EE000F060F80BE000F0C2
:101200008BF808E000F0A4F905E000F0F9F902E03D
:1012100000F0E2FA00BF00BF012006490870FFF7A6
:10122000E2FB601CC4B2072C00D10124C6E7000019
:10123000001001402800002008B5B8211D48FFF724
:10124000ECFE1D4808238022002100900846FFF78D
:1012500037FB40F2DC50FFF73FFDBE211548FFF79A
:10126000DEFE4FF47A70FFF737FDC0211148FFF71B
:10127000D6FEC820FFF730FDBE210E48FFF7CFFE97
:101280004FF44870FFF728FDAE210A48FFF7C7FE6C
:101290004FF47A70FFF720FDB1210648FFF7BDFE3D
:1012A000AE210448FFF7BBFE4FF4FA60FFF714FDD0
:1012B00008BD0000002C0140C908002008B51448F2
:1012C00008238022002100900846FFF7F9FAB72191
:1012D0001048FFF7A2FEC0210E48FFF7A0FE4FF412
:1012E0007A70FFF7F9FCAE210A48FFF798FEAE21AD
:1012F0000848FFF794FE4FF4FA70FFF7EDFCB121B8
:101300000448FFF78AFE4FF4FA60FFF7E5FC08BDDA
:10131000C9000020002C014008B5B8218648FFF71D
:101320007CFE864808238022002100900846FFF7B3
:10133000C7FA4FF42F70FFF7CFFCBE217E48FFF7AE
:101340006EFE4FF42F70FFF7C7FCB8217A48FFF705
:1013500064FEC820FFF7C0FCB6217748FFF75DFEAA
:10136000774808238022002100900846FFF7A8FA5A
:10137000AA20FFF7B1FCB8216F48FFF74EFE714875
:1013800008238022002100900846FFF799FAC82020
:10139000FFF7A2FCB6216848FFF73FFE6848082324
:1013A0008022002100900846FFF78AFAAA20FFF762
:1013B00093FCB8216048FFF730FE63480823802281
:1013C000002100900846FFF77BFAC820FFF784FC55
:1013D000B6215948FFF721FE5948082380220021F1
:1013E00000900846FFF76CFAAA20FFF775FCB821B9
:1013F0005148FFF712FE5448082380220021009034
:101400000846FFF75DFAC820FFF766FCB6214A4898
:10141000FFF703FE4A480823802200210090084677
:10142000FFF74EFAAA20FFF757FCB8214248FFF712
:10143000F4FD454808238022002100900846FFF76C
:101440003FFAC820FFF748FCB6213B48FFF7E5FD0F
:101450003B4808238022002100900846FFF730FA1D
:10146000AA20FFF739FCB8213348FFF7D6FDBA218F
:101470003148FFF7D4FD40F2DC50FFF72DFC334834
:1014800008238022002100900846FFF719FABA21AC
:101490002948FFF7C4FDBC212748FFF7C0FD4FF4E2
:1014A0001670FFF719FCBA212348FFF7B8FD4FF477
:1014B000FA70FFF711FCBC211F48FFF7B0FD4FF495
:1014C0009670FFF709FCBA211B48FFF7A8FD4FF4FF
:1014D000FA70FFF701FCBC211748FFF7A0FD4FF49D
:1014E0009670FFF7F9FBBA211348FFF798FD1548EE
:1014F00008238022002100900846FFF7E1F94FF40D
:10150000FA70FFF7E9FBC0210B48FFF788FD4FF4A5
:101510009670FFF7E1FBAE210748FFF780FD4FF41F
:101520001670FFF7D9FBB1210348FFF776FD4FF4A2
:10153000FA60FFF7D1FB08BD002C0140C90800206C
:10154000C9100020C9000020C90C0020C9040020D7
:1015500008B5B6212748FFF760FD274808238022F9
:10156000002100900846FFF7ABF94FF4FA60FFF74F
:10157000B3FBB8211F48FFF750FD4FF47A70FFF717
:10158000ABFBB3211B48FFF748FDB0211948FFF71B
:1015900046FD40F2DC50FFF79FFBB7211548FFF7EF
:1015A0003CFDBE211348FFF73AFD14480823802272
:1015B000002100900846FFF783F96420FFF78CFBB9
:1015C000C0210C48FFF72BFD4FF42F70FFF784FB71
:1015D000AE210848FFF723FD4FF41670FFF77CFBA0
:1015E000B1210448FFF719FD41F28830FFF774FB81
:1015F00008BD0000002C0140C9040020C9080020DB
:1016000008B5724808238022002100900846FFF7A1
:1016100057F9B7216E48FFF700FD40F2DC50FFF7A5
:101620005BFBBB216A48FFF7FAFC40F2DC50FFF796
:1016300053FB684808238022002100900846FFF7EA
:101640003FF9BC216248FFF7EAFC4FF4FA70FFF75C
:1016500043FBBD215E48FFF7E2FC4FF49670FFF7B5
:101660003BFBBE215A48FFF7DAFC6420FFF734FB4E
:10167000BD215748FFF7D3FC6420FFF72DFBBE21A7
:101680005348FFF7CCFC6420FFF726FBBD215048F0
:10169000FFF7C5FC6420FFF71FFBBE214C48FFF796
:1016A000BEFC6420FFF718FBBD214948FFF7B7FCDB
:1016B0006420FFF711FBBE214548FFF7B0FC642012
:1016C000FFF70AFBBD214248FFF7A9FC6420FFF7A2
:1016D00003FBBE213E48FFF7A2FC6420FFF7FCFAA3
:1016E000BD213B48FFF79BFC6420FFF7F5FABE21C4
:1016F0003748FFF794FC6420FFF7EEFABD21344829
:10170000FFF78DFC6420FFF7E7FABE213048FFF7B2
:1017100086FC6420FFF7E0FABD212D48FFF77FFC2F
:101720006420FFF7D9FABE212948FFF778FC64202E
:10173000FFF7D2FABD212648FFF771FC6420FFF7BE
:10174000CBFABE212248FFF76AFC6420FFF7C4FAF7
:10175000BD211F48FFF763FC6420FFF7BDFABE21DF
:101760001B48FFF75CFC6420FFF7B6FABD21184860
:10177000FFF755FC6420FFF7AFFABE211448FFF7CE
:101780004EFC6420FFF7A8FABC211148FFF747FC84
:1017900040F21450FFF7A0FAC0210D48FFF73FFCBC
:1017A0004FF4C870FFF798FAAE210948FFF737FCED
:1017B0004FF41670FFF790FAB1210548FFF72DFCA2
:1017C0004FF4FA60FFF788FA08BD0000C90800204E
:1017D000002C0140C904002008B53D4808238022A0
:1017E000002100900846FFF76BF8B7213948FFF752
:1017F00014FCC0213748FFF712FC4FF47A70FFF752
:101800006BFAAE213348FFF70AFC4FF4FA70FFF78A
:1018100063FAB1212F48FFF700FC4FF4FA60FFF79D
:101820005BFAB7212B48FFF7F8FBBF212948FFF7E8
:10183000F6FB4FF4FA70FFF74FFABD212548FFF78A
:10184000EEFBC820FFF748FABC212248FFF7E7FB70
:10185000C820FFF741FABD211E48FFF7E0FBC82072
:10186000FFF73AFABC211B48FFF7D9FBC820FFF766
:1018700033FABD211748FFF7D2FBC820FFF72CFA37
:10188000BC211448FFF7CBFBC820FFF725FABC2189
:101890001048FFF7C4FBC820FFF71EFABB210D4814
:1018A000FFF7BDFB4FF4FA70FFF716FAAE210948B7
:1018B000FFF7B5FB4FF4FA70FFF70EFAB1210548B8
:1018C000FFF7ABFB4FF4FA60FFF706FA08BD000024
:1018D000C9000020002C0140F8180008000000207A
:1018E000D014000048010008641C0008D014002037
:1018F0000004000082110008500600A24A04000102
:10190000600901020304060708090C611020250282
:101910000406080020242424FE23222020FF202265
:101920002CA02000000848847F02414020130C14A2
:101930002241F840437F4901227F0D200A81412145
:101940001D214181FF8901801B81810020102CE72E
:101950002424009090FF90494A4840000101017FF3
:10196000211140403004FE22FE046019FC1625843B
:10197000FC0000601F22BF403F82FF001312125282
:10198000827E0002018007FE40A0100800010008CE
:10199000B0030C102142F000010219F00101628035
:1019A0000219010102BD000102218001015A400219
:1019B000211F01015A4002213F01015A40019B01B0
:1019C0001340C001B5FFD2801031120C0457C0C0C3
:1019D000407B030C256103070F1F3E7CF8F0E0C03D
:1019E000E0E0F8FCFE7F1F0F1F3FFEF8F0C0808094
:1019F000C0E0F0F87C3E1F0F0703850333010301AD
:101A000072019611010EBF03FD037D0404254C22D3
:101A1000FC0112FE011406FCFCF8F8F0710F27C05F
:101A200080A2051004C0E0F80172FC0111401141D0
:101A3000092566133CFF013E7F8903C37FFF010E2A
:101A400023E01F0652FC3FE27F3F0323FE3C81124E
:101A50000F782C04F8E0E00B0593C0E37E0004232C
:101A60001F0F033F11B616F82F110193E1F3BD08C4
:101A7000042D3F1F0760295618040F0F0F5B196BC9
:101A80000D2A5C068301013E31411D15030E5201F2
:101A9000000409113D0D660004FD78040D6C00047E
:101AA0007D88040D6B78040511100DC87804CD43B2
:101AB000040115010136380B2CC0C0EC02150F01D2
:101AC00001363801203A01AA010519890E438088A0
:101AD0000A2F607874069EE06D081D69037D7C08FE
:101AE0001D07083F3F7E57062C053C3F3F3E9E06A4
:101AF0001F80E0B3066C05FE7E3F0FA4050D1E6936
:101B00000A0120E42C04838F8F340652F0EA1D5121
:101B10000510040F1FBE74AEC0080C6D6F05DF0109
:101B20000377041301073E6FFCF8B2062F0103A9E7
:101B3000080F22FAF806071C0480C0F079073E1F40
:101B4000F8057DF60552C0DF0F21070708061DC006
:101B5000071FFC7E70068D0C051FF0F8C106113DB5
:101B60000D2365093C0607071F1FFFF7077D0F03BD
:101B70002D4A0611C10C0422FEFCF8C7071C060FF3
:101B80001F1F3F3E39087FF0206D0E3D8D06223E1F
:101B9000410D1FA40D1406103038383CD9971F0F83
:101BA000532230151114052300114132382C8DBBFE
:101BB000060C091E4070787C7E7F3F1FC507120609
:101BC000BB0D1BBF0B0E1B3E3704031D0C1E3F003D
:101BD00005FF3F3F1C00010D3883082C0702060E4D
:101BE0001E3E7E960A1D1E049EC0FD073DB20A19C8
:101BF000F40D6900082D9F0A19D01FFCFEAE0A0DD6
:101C0000CD00084D4E117D71052D5D0D0D2A5E1123
:101C1000013D3F4D2F05356027FFFE602D3D0B0533
:101C20002AD9359F3EBFF40B1DC40C0630FFA0110E
:101C3000EF75D845E925EA0F26F0E0A2121DFD0C4C
:101C40004DC60C7A1F270F29F8E07E08FD500E4D77
:101C5000630E0D26410CBD9E0E7DAF0E0D1BBC0309
:041C60000000000080
:04000005080000ED02
:00000001FF
